{
  "contractName": "ClockAuctionBase",
  "abi": [
    {
      "constant": true,
      "inputs": [],
      "name": "kittyAuction",
      "outputs": [
        {
          "name": "",
          "type": "address"
        }
      ],
      "payable": false,
      "stateMutability": "view",
      "type": "function"
    },
    {
      "constant": true,
      "inputs": [],
      "name": "ownerCut",
      "outputs": [
        {
          "name": "",
          "type": "uint256"
        }
      ],
      "payable": false,
      "stateMutability": "view",
      "type": "function"
    },
    {
      "constant": true,
      "inputs": [],
      "name": "nonFungibleContract",
      "outputs": [
        {
          "name": "",
          "type": "address"
        }
      ],
      "payable": false,
      "stateMutability": "view",
      "type": "function"
    },
    {
      "anonymous": false,
      "inputs": [
        {
          "indexed": false,
          "name": "tokenId",
          "type": "uint256"
        },
        {
          "indexed": false,
          "name": "startingPrice",
          "type": "uint256"
        },
        {
          "indexed": false,
          "name": "endingPrice",
          "type": "uint256"
        },
        {
          "indexed": false,
          "name": "duration",
          "type": "uint256"
        }
      ],
      "name": "AuctionCreated",
      "type": "event"
    },
    {
      "anonymous": false,
      "inputs": [
        {
          "indexed": false,
          "name": "tokenId",
          "type": "uint256"
        },
        {
          "indexed": false,
          "name": "totalPrice",
          "type": "uint256"
        },
        {
          "indexed": false,
          "name": "winner",
          "type": "address"
        }
      ],
      "name": "AuctionSuccessful",
      "type": "event"
    },
    {
      "anonymous": false,
      "inputs": [
        {
          "indexed": false,
          "name": "tokenId",
          "type": "uint256"
        }
      ],
      "name": "AuctionCancelled",
      "type": "event"
    }
  ],
  "bytecode": "0x6060604052341561000f57600080fd5b6101ac8061001e6000396000f300606060405260043610610057576000357c0100000000000000000000000000000000000000000000000000000000900463ffffffff1680635938e0bb1461005c57806383b5ff8b146100b1578063dd1b7a0f146100da575b600080fd5b341561006757600080fd5b61006f61012f565b604051808273ffffffffffffffffffffffffffffffffffffffff1673ffffffffffffffffffffffffffffffffffffffff16815260200191505060405180910390f35b34156100bc57600080fd5b6100c4610154565b6040518082815260200191505060405180910390f35b34156100e557600080fd5b6100ed61015a565b604051808273ffffffffffffffffffffffffffffffffffffffff1673ffffffffffffffffffffffffffffffffffffffff16815260200191505060405180910390f35b6000809054906101000a900473ffffffffffffffffffffffffffffffffffffffff1681565b60025481565b600160009054906101000a900473ffffffffffffffffffffffffffffffffffffffff16815600a165627a7a72305820bec8443e2f108e4deab15a52fb76a5d8a84a9ea123e17a344c76b489ec56ec360029",
  "source": "// CryptoKitties Source code\n// Copied from: https://etherscan.io/address/0x06012c8cf97bead5deae237070f9587f8e7a266d#code\n\npragma solidity ^0.4.11;\n\nimport \"./SafeMath.sol\";\n\n/**\n * @title Ownable\n * @dev The Ownable contract has an owner address, and provides basic authorization control\n * functions, this simplifies the implementation of \"user permissions\".\n */\ncontract Ownable {\n    address public owner;\n\n\n    /**\n     * @dev The Ownable constructor sets the original `owner` of the contract to the sender\n     * account.\n     */\n    function Ownable() {\n        owner = msg.sender;\n    }\n\n\n    /**\n     * @dev Throws if called by any account other than the owner.\n     */\n    modifier onlyOwner() {\n        require(msg.sender == owner);\n        _;\n    }\n\n\n    /**\n     * @dev Allows the current owner to transfer control of the contract to a newOwner.\n     * @param newOwner The address to transfer ownership to.\n     */\n    function transferOwnership(address newOwner) onlyOwner {\n        if (newOwner != address(0)) {\n            owner = newOwner;\n        }\n    }\n\n}\n\n\n\n/// @title Interface for contracts conforming to ERC-721: Non-Fungible Tokens\n/// @author Dieter Shirley <dete@axiomzen.co> (https://github.com/dete)\ncontract ERC721 {\n    // Required methods\n    function totalSupply() public view returns (uint256 total);\n\n    function balanceOf(address _owner) public view returns (uint256 balance);\n\n    function ownerOf(uint256 _tokenId) external view returns (address owner);\n\n    function approve(address _to, uint256 _tokenId) external;\n\n    function transfer(address _to, uint256 _tokenId) external;\n\n    function transferFrom(address _from, address _to, uint256 _tokenId) external;\n\n    // Events\n    event Transfer(address from, address to, uint256 tokenId);\n    event Approval(address owner, address approved, uint256 tokenId);\n\n    // Optional\n    // function name() public view returns (string name);\n    // function symbol() public view returns (string symbol);\n    // function tokensOfOwner(address _owner) external view returns (uint256[] tokenIds);\n    // function tokenMetadata(uint256 _tokenId, string _preferredTransport) public view returns (string infoUrl);\n\n    // ERC-165 Compatibility (https://github.com/ethereum/EIPs/issues/165)\n    function supportsInterface(bytes4 _interfaceID) external view returns (bool);\n}\n\n\n// // Auction wrapper functions\n\n\n// Auction wrapper functions\n\n\n\n\n\n/// @title A facet of KittyCore that manages special access privileges.\n/// @author Axiom Zen (https://www.axiomzen.co)\n/// @dev See the KittyCore contract documentation to understand how the various contract facets are arranged.\ncontract KittyAccessControl {\n    // This facet controls access control for CryptoKitties. There are four roles managed here:\n    //\n    //     - The CEO: The CEO can reassign other roles and change the addresses of our dependent smart\n    //         contracts. It is also the only role that can unpause the smart contract. It is initially\n    //         set to the address that created the smart contract in the KittyCore constructor.\n    //\n    //     - The CFO: The CFO can withdraw funds from KittyCore and its auction contracts.\n    //\n    //     - The COO: The COO can release gen0 kitties to auction, and mint promo cats.\n    //\n    // It should be noted that these roles are distinct without overlap in their access abilities, the\n    // abilities listed for each role above are exhaustive. In particular, while the CEO can assign any\n    // address to any role, the CEO address itself doesn't have the ability to act in those roles. This\n    // restriction is intentional so that we aren't tempted to use the CEO address frequently out of\n    // convenience. The less we use an address, the less likely it is that we somehow compromise the\n    // account.\n\n    /// @dev Emited when contract is upgraded - See README.md for updgrade plan\n    event ContractUpgrade(address newContract);\n\n    // The addresses of the accounts (or contracts) that can execute actions within each roles.\n    address public ceoAddress;\n    address public cfoAddress;\n    address public cooAddress;\n\n    // @dev Keeps track whether the contract is paused. When that is true, most actions are blocked\n    bool public paused = false;\n\n    /// @dev Access modifier for CEO-only functionality\n    modifier onlyCEO() {\n        require(msg.sender == ceoAddress);\n        _;\n    }\n\n    /// @dev Access modifier for CFO-only functionality\n    modifier onlyCFO() {\n        require(msg.sender == cfoAddress);\n        _;\n    }\n\n    /// @dev Access modifier for COO-only functionality\n    modifier onlyCOO() {\n        require(msg.sender == cooAddress);\n        _;\n    }\n\n    modifier onlyCLevel() {\n        require(\n            msg.sender == cooAddress ||\n            msg.sender == ceoAddress ||\n            msg.sender == cfoAddress\n        );\n        _;\n    }\n\n    /// @dev Assigns a new address to act as the CEO. Only available to the current CEO.\n    /// @param _newCEO The address of the new CEO\n    function setCEO(address _newCEO) external onlyCEO {\n        require(_newCEO != address(0));\n\n        ceoAddress = _newCEO;\n    }\n\n    /// @dev Assigns a new address to act as the CFO. Only available to the current CEO.\n    /// @param _newCFO The address of the new CFO\n    function setCFO(address _newCFO) external onlyCEO {\n        require(_newCFO != address(0));\n\n        cfoAddress = _newCFO;\n    }\n\n    /// @dev Assigns a new address to act as the COO. Only available to the current CEO.\n    /// @param _newCOO The address of the new COO\n    function setCOO(address _newCOO) external onlyCEO {\n        require(_newCOO != address(0));\n\n        cooAddress = _newCOO;\n    }\n\n    /*** Pausable functionality adapted from OpenZeppelin ***/\n\n    /// @dev Modifier to allow actions only when the contract IS NOT paused\n    modifier whenNotPaused() {\n        require(!paused);\n        _;\n    }\n\n    /// @dev Modifier to allow actions only when the contract IS paused\n    modifier whenPaused {\n        require(paused);\n        _;\n    }\n\n    /// @dev Called by any \"C-level\" role to pause the contract. Used only when\n    ///  a bug or exploit is detected and we need to limit damage.\n    function pause() external onlyCLevel whenNotPaused {\n        paused = true;\n    }\n\n    /// @dev Unpauses the smart contract. Can only be called by the CEO, since\n    ///  one reason we may pause the contract is when CFO or COO accounts are\n    ///  compromised.\n    /// @notice This is public rather than external so it can be called by\n    ///  derived contracts.\n    function unpause() public onlyCEO whenPaused {\n        // can't unpause if contract was upgraded\n        paused = false;\n    }\n}\n\n\n\n\n/// @title Base contract for CryptoKitties. Holds all common structs, events and base variables.\n/// @author Axiom Zen (https://www.axiomzen.co)\n/// @dev See the KittyCore contract documentation to understand how the various contract facets are arranged.\ncontract KittyBase is KittyAccessControl, SafeMath {\n    /*** EVENTS ***/\n\n    /// @dev The Birth event is fired whenever a new kitten comes into existence. This obviously\n    ///  includes any time a cat is created through the giveBirth method, but it is also called\n    ///  when a new gen0 cat is created.\n    event Birth(address owner, uint256 kittyId, string name);\n\n    /// @dev Transfer event as defined in current draft of ERC721. Emitted every time a kitten\n    ///  ownership is assigned, including births.\n    event Transfer(address from, address to, uint256 tokenId);\n\n    /*** DATA TYPES ***/\n\n    /// @dev The main Kitty struct. Every cat in CryptoKitties is represented by a copy\n    ///  of this structure, so great care was taken to ensure that it fits neatly into\n    ///  exactly two 256-bit words. Note that the order of the members in this structure\n    ///  is important because of the byte-packing rules used by Ethereum.\n    ///  Ref: http://solidity.readthedocs.io/en/develop/miscellaneous.html\n    struct Kitty {\n        // The Kitty's genetic code is packed into these 256-bits, the format is\n        // sooper-sekret! A cat's genes never change.\n        string name;\n        string author;\n        uint64 birthTime;\n        uint256 lastPrice;\n\n        // The timestamp from the block when this cat came into existence.\n\n        // The minimum timestamp after which this cat can engage in breeding\n        // activities again. This same timestamp is used for the pregnancy\n        // timer (for matrons) as well as the siring cooldown.\n\n        // The ID of the parents of this kitty, set to 0 for gen0 cats.\n        // Note that using 32-bit unsigned integers limits us to a \"mere\"\n        // 4 billion cats. This number might seem small until you realize\n        // that Ethereum currently has a limit of about 500 million\n        // transactions per year! So, this definitely won't be a problem\n        // for several years (even as Ethereum learns to scale).\n\n        // Set to the ID of the sire cat for matrons that are pregnant,\n        // zero otherwise. A non-zero value here is how we know a cat\n        // is pregnant. Used to retrieve the genetic material for the new\n        // kitten when the birth transpires.\n\n        // Set to the index in the cooldown array (see below) that represents\n        // the current cooldown duration for this Kitty. This starts at zero\n        // for gen0 cats, and is initialized to floor(generation/2) for others.\n        // Incremented by one for each successful breeding action, regardless\n        // of whether this cat is acting as matron or sire.\n\n        // The \"generation number\" of this cat. Cats minted by the CK contract\n        // for sale are called \"gen0\" and have a generation number of 0. The\n        // generation number of all other cats is the larger of the two generation\n        // numbers of their parents, plus one.\n        // (i.e. max(matron.generation, sire.generation) + 1)\n    }\n\n    /*** CONSTANTS ***/\n\n    /// @dev A lookup table indicating the cooldown duration after any successful\n    ///  breeding action, called \"pregnancy time\" for matrons and \"siring cooldown\"\n    ///  for sires. Designed such that the cooldown roughly doubles each time a cat\n    ///  is bred, encouraging owners not to just keep breeding the same cat over\n    ///  and over again. Caps out at one week (a cat can breed an unbounded number\n    ///  of times, and the maximum cooldown is always seven days)\n\n    // An approximation of currently how many seconds are in between blocks.\n\n    /*** STORAGE ***/\n\n    /// @dev An array containing the Kitty struct for all Kitties in existence. The ID\n    ///  of each cat is actually an index into this array. Note that ID 0 is a negacat,\n    ///  the unKitty, the mythical beast that is the parent of all gen0 cats. A bizarre\n    ///  creature that is both matron and sire... to itself! Has an invalid genetic code.\n    ///  In other words, cat ID 0 is invalid... ;-)\n    Kitty[] kitties;\n\n    /// @dev A mapping from cat IDs to the address that owns them. All cats have\n    ///  some valid owner address, even gen0 cats are created with a non-zero owner.\n    mapping(uint256 => address) public kittyIndexToOwner;\n\n    // @dev A mapping from owner address to count of tokens that address owns.\n    //  Used internally inside balanceOf() to resolve ownership count.\n    mapping(address => uint256) ownershipTokenCount;\n\n    /// @dev A mapping from KittyIDs to an address that has been approved  call\n    ///  transferFrom(). Each Kitty can only have one approved address for transfer\n    ///  at any time. A zero value means no approval is outstanding.\n    mapping(uint256 => address) public kittyIndexToApproved;\n\n\n    /// @dev The address of the ClockAuction contract that handles sales of Kitties. This\n    ///  same contract handles both peer-to-peer sales as well as the gen0 sales which are\n    ///  initiated every 15 minutes.\n    SaleClockAuction public saleAuction;\n\n    /// @dev The address of a custom ClockAuction subclassed contract that handles siring\n    ///  auctions. Needs to be separate from saleAuction because the actions taken on success\n    ///  after a sales and siring auction are quite different.\n\n    /// @dev Assigns ownership of a specific Kitty to an address.\n    function _transfer(address _from, address _to, uint256 _tokenId) internal {\n        // Since the number of kittens is capped to 2^32 we can't overflow this\n        ownershipTokenCount[_to]++;\n        // transfer ownership\n        kittyIndexToOwner[_tokenId] = _to;\n        // When creating new kittens _from is 0x0, but we can't account that address.\n        if (_from != address(0)) {\n            ownershipTokenCount[_from]--;\n            // once the kitten is transferred also clear sire allowances\n            // clear any previously approved ownership exchange\n            delete kittyIndexToApproved[_tokenId];\n        }\n        // Emit the transfer event.\n        Transfer(_from, _to, _tokenId);\n    }\n\n    /// @dev An internal method that creates a new kitty and stores it. This\n    ///  method doesn't do any checking and should only be called when the\n    ///  input data is known to be valid. Will generate both a Birth event\n    ///  and a Transfer event.\n    /// @param _name The kitty's genetic code.\n    /// @param _owner The inital owner of this cat, must be non-zero (except for the unKitty, ID 0)\n    function _createKitty(\n        string _name,\n        string _author,\n        uint _initialPrice,\n        address _owner\n\n    )\n    internal\n    returns (uint)\n    {\n        // These requires are not strictly necessary, our calling code should make\n        // sure that these conditions are never broken. However! _createKitty() is already\n        // an expensive call (for storage), and it doesn't hurt to be especially careful\n        // to ensure our data structurestruffl are always valid.\n\n        // New kitty starts with the same cooldown as parent gen/2\n\n        Kitty memory _kitty = Kitty({\n            name : _name,\n            author : _author,\n            lastPrice : _initialPrice,\n            birthTime : uint64(now)\n            });\n        uint256 newKittenId = kitties.push(_kitty) - 1;\n\n        // It's probably never going to happen, 4 billion cats is A LOT, but\n        // let's just be 100% sure we never let this happen.\n        require(newKittenId == uint256(uint32(newKittenId)));\n\n        // emit the birth event\n        Birth(\n            _owner,\n            newKittenId,\n            _kitty.name\n        );\n\n        // This will assign ownership, and also emit the Transfer event as\n        // per ERC721 draft\n        _transfer(0, _owner, newKittenId);\n\n        return newKittenId;\n    }\n\n\n    function setLastPrice(uint256 _tokenId, uint256 _value) {\n        Kitty storage kit = kitties[_tokenId];\n        kit.lastPrice = _value;\n    }\n}\n\n\n\n\n\n/// @title The external contract that is responsible for generating metadata for the kitties,\n///  it has one function that will return the data as bytes.\ncontract ERC721Metadata {\n    /// @dev Given a token Id, returns a byte array that is supposed to be converted into string.\n    function getMetadata(uint256 _tokenId, string) public view returns (bytes32[4] buffer, uint256 count) {\n        if (_tokenId == 1) {\n            buffer[0] = \"Hello World! :D\";\n            count = 15;\n        } else if (_tokenId == 2) {\n            buffer[0] = \"I would definitely choose a medi\";\n            buffer[1] = \"um length string.\";\n            count = 49;\n        } else if (_tokenId == 3) {\n            buffer[0] = \"Lorem ipsum dolor sit amet, mi e\";\n            buffer[1] = \"st accumsan dapibus augue lorem,\";\n            buffer[2] = \" tristique vestibulum id, libero\";\n            buffer[3] = \" suscipit varius sapien aliquam.\";\n            count = 128;\n        }\n    }\n}\n\n\n/// @title The facet of the CryptoKitties core contract that manages ownership, ERC-721 (draft) compliant.\n/// @author Axiom Zen (https://www.axiomzen.co)\n/// @dev Ref: https://github.com/ethereum/EIPs/issues/721\n///  See the KittyCore contract documentation to understand how the various contract facets are arranged.\ncontract KittyOwnership is KittyBase, ERC721 {\n\n    /// @notice Name and symbol of the non fungible token, as defined in ERC721.\n    string public constant name = \"CryptoArt\";\n    string public constant symbol = \"ART\";\n\n    // The contract that will return kitty metadata\n    ERC721Metadata public erc721Metadata;\n\n    bytes4 constant InterfaceSignature_ERC165 =\n    bytes4(keccak256('supportsInterface(bytes4)'));\n\n    bytes4 constant InterfaceSignature_ERC721 =\n    bytes4(keccak256('name()')) ^\n    bytes4(keccak256('symbol()')) ^\n    bytes4(keccak256('totalSupply()')) ^\n    bytes4(keccak256('balanceOf(address)')) ^\n    bytes4(keccak256('ownerOf(uint256)')) ^\n    bytes4(keccak256('approve(address,uint256)')) ^\n    bytes4(keccak256('transfer(address,uint256)')) ^\n    bytes4(keccak256('transferFrom(address,address,uint256)')) ^\n    bytes4(keccak256('tokensOfOwner(address)')) ^\n    bytes4(keccak256('tokenMetadata(uint256,string)'));\n\n    /// @notice Introspection interface as per ERC-165 (https://github.com/ethereum/EIPs/issues/165).\n    ///  Returns true for any standardized interfaces implemented by this contract. We implement\n    ///  ERC-165 (obviously!) and ERC-721.\n    function supportsInterface(bytes4 _interfaceID) external view returns (bool)\n    {\n        // DEBUG ONLY\n        //require((InterfaceSignature_ERC165 == 0x01ffc9a7) && (InterfaceSignature_ERC721 == 0x9a20483d));\n\n        return ((_interfaceID == InterfaceSignature_ERC165) || (_interfaceID == InterfaceSignature_ERC721));\n    }\n\n    /// @dev Set the address of the sibling contract that tracks metadata.\n    ///  CEO only.\n    function setMetadataAddress(address _contractAddress) public onlyCEO {\n        erc721Metadata = ERC721Metadata(_contractAddress);\n    }\n\n    // Internal utility functions: These functions all assume that their input arguments\n    // are valid. We leave it to public methods to sanitize their inputs and follow\n    // the required logic.\n\n    /// @dev Checks if a given address is the current owner of a particular Kitty.\n    /// @param _claimant the address we are validating against.\n    /// @param _tokenId kitten id, only valid when > 0\n    function _owns(address _claimant, uint256 _tokenId) internal view returns (bool) {\n        return kittyIndexToOwner[_tokenId] == _claimant;\n    }\n\n    /// @dev Checks if a given address currently has transferApproval for a particular Kitty.\n    /// @param _claimant the address we are confirming kitten is approved for.\n    /// @param _tokenId kitten id, only valid when > 0\n    function _approvedFor(address _claimant, uint256 _tokenId) internal view returns (bool) {\n        return kittyIndexToApproved[_tokenId] == _claimant;\n    }\n\n    /// @dev Marks an address as being approved for transferFrom(), overwriting any previous\n    ///  approval. Setting _approved to address(0) clears all transfer approval.\n    ///  NOTE: _approve() does NOT send the Approval event. This is intentional because\n    ///  _approve() and transferFrom() are used together for putting Kitties on auction, and\n    ///  there is no value in spamming the log with Approval events in that case.\n    function _approve(uint256 _tokenId, address _approved) internal {\n        kittyIndexToApproved[_tokenId] = _approved;\n    }\n\n    /// @notice Returns the number of Kitties owned by a specific address.\n    /// @param _owner The owner address to check.\n    /// @dev Required for ERC-721 compliance\n    function balanceOf(address _owner) public view returns (uint256 count) {\n        return ownershipTokenCount[_owner];\n    }\n\n    /// @notice Transfers a Kitty to another address. If transferring to a smart\n    ///  contract be VERY CAREFUL to ensure that it is aware of ERC-721 (or\n    ///  CryptoKitties specifically) or your Kitty may be lost forever. Seriously.\n    /// @param _to The address of the recipient, can be a user or contract.\n    /// @param _tokenId The ID of the Kitty to transfer.\n    /// @dev Required for ERC-721 compliance.\n    function transfer(\n        address _to,\n        uint256 _tokenId\n    )\n    external\n    whenNotPaused\n    {\n        // Safety check to prevent against an unexpected 0x0 default.\n        require(_to != address(0));\n        // Disallow transfers to this contract to prevent accidental misuse.\n        // The contract should never own any kitties (except very briefly\n        // after a gen0 cat is created and before it goes on auction).\n        require(_to != address(this));\n        // Disallow transfers to the auction contracts to prevent accidental\n        // misuse. Auction contracts should only take ownership of kitties\n        // through the allow + transferFrom flow.\n        require(_to != address(saleAuction));\n\n        // You can only send your own cat.\n        require(_owns(msg.sender, _tokenId));\n\n        // Reassign ownership, clear pending approvals, emit Transfer event.\n        _transfer(msg.sender, _to, _tokenId);\n    }\n\n    /// @notice Grant another address the right to transfer a specific Kitty via\n    ///  transferFrom(). This is the preferred flow for transfering NFTs to contracts.\n    /// @param _to The address to be granted transfer approval. Pass address(0) to\n    ///  clear all approvals.\n    /// @param _tokenId The ID of the Kitty that can be transferred if this call succeeds.\n    /// @dev Required for ERC-721 compliance.\n    function approve(\n        address _to,\n        uint256 _tokenId\n    )\n    external\n    whenNotPaused\n    {\n        // Only an owner can grant transfer approval.\n        require(_owns(msg.sender, _tokenId));\n\n        // Register the approval (replacing any previous approval).\n        _approve(_tokenId, _to);\n\n        // Emit approval event.\n        Approval(msg.sender, _to, _tokenId);\n    }\n\n    /// @notice Transfer a Kitty owned by another address, for which the calling address\n    ///  has previously been granted transfer approval by the owner.\n    /// @param _from The address that owns the Kitty to be transfered.\n    /// @param _to The address that should take ownership of the Kitty. Can be any address,\n    ///  including the caller.\n    /// @param _tokenId The ID of the Kitty to be transferred.\n    /// @dev Required for ERC-721 compliance.\n    function transferFrom(\n        address _from,\n        address _to,\n        uint256 _tokenId\n    )\n    external\n    whenNotPaused\n    {\n        // Safety check to prevent against an unexpected 0x0 default.\n        require(_to != address(0));\n        // Disallow transfers to this contract to prevent accidental misuse.\n        // The contract should never own any kitties (except very briefly\n        // after a gen0 cat is created and before it goes on auction).\n        require(_to != address(this));\n        // Check for approval and valid ownership\n        require(_approvedFor(msg.sender, _tokenId));\n        require(_owns(_from, _tokenId));\n\n        // Reassign ownership (also clears pending approvals and emits Transfer event).\n        _transfer(_from, _to, _tokenId);\n    }\n\n    /// @notice Returns the total number of Kitties currently in existence.\n    /// @dev Required for ERC-721 compliance.\n    function totalSupply() public view returns (uint) {\n        return kitties.length - 1;\n    }\n\n    /// @notice Returns the address currently assigned ownership of a given Kitty.\n    /// @dev Required for ERC-721 compliance.\n    function ownerOf(uint256 _tokenId)\n    external\n    view\n    returns (address owner)\n    {\n        owner = kittyIndexToOwner[_tokenId];\n\n        require(owner != address(0));\n    }\n\n    /// @notice Returns a list of all Kitty IDs assigned to an address.\n    /// @param _owner The owner whose Kitties we are interested in.\n    /// @dev This method MUST NEVER be called by smart contract code. First, it's fairly\n    ///  expensive (it walks the entire Kitty array looking for cats belonging to owner),\n    ///  but it also returns a dynamic array, which is only supported for web3 calls, and\n    ///  not contract-to-contract calls.\n    function tokensOfOwner(address _owner) external view returns (uint256[] ownerTokens) {\n        uint256 tokenCount = balanceOf(_owner);\n\n        if (tokenCount == 0) {\n            // Return an empty array\n            return new uint256[](0);\n        } else {\n            uint256[] memory result = new uint256[](tokenCount);\n            uint256 totalCats = totalSupply();\n            uint256 resultIndex = 0;\n\n            // We count on the fact that all cats have IDs starting at 1 and increasing\n            // sequentially up to the totalCat count.\n            uint256 catId;\n\n            for (catId = 1; catId <= totalCats; catId++) {\n                if (kittyIndexToOwner[catId] == _owner) {\n                    result[resultIndex] = catId;\n                    resultIndex++;\n                }\n            }\n\n            return result;\n        }\n    }\n\n    /// @dev Adapted from memcpy() by @arachnid (Nick Johnson <arachnid@notdot.net>)\n    ///  This method is licenced under the Apache License.\n    ///  Ref: https://github.com/Arachnid/solidity-stringutils/blob/2f6ca9accb48ae14c66f1437ec50ed19a0616f78/strings.sol\n    function _memcpy(uint _dest, uint _src, uint _len) private view {\n        // Copy word-length chunks while possible\n        for (; _len >= 32; _len -= 32) {\n            assembly {\n                mstore(_dest, mload(_src))\n            }\n            _dest += 32;\n            _src += 32;\n        }\n\n        // Copy remaining bytes\n        uint256 mask = 256 ** (32 - _len) - 1;\n        assembly {\n            let srcpart := and(mload(_src), not(mask))\n            let destpart := and(mload(_dest), mask)\n            mstore(_dest, or(destpart, srcpart))\n        }\n    }\n\n    /// @dev Adapted from toString(slice) by @arachnid (Nick Johnson <arachnid@notdot.net>)\n    ///  This method is licenced under the Apache License.\n    ///  Ref: https://github.com/Arachnid/solidity-stringutils/blob/2f6ca9accb48ae14c66f1437ec50ed19a0616f78/strings.sol\n    function _toString(bytes32[4] _rawBytes, uint256 _stringLength) private view returns (string) {\n        var outputString = new string(_stringLength);\n        uint256 outputPtr;\n        uint256 bytesPtr;\n\n        assembly {\n            outputPtr := add(outputString, 32)\n            bytesPtr := _rawBytes\n        }\n\n        _memcpy(outputPtr, bytesPtr, _stringLength);\n\n        return outputString;\n    }\n\n    /// @notice Returns a URI pointing to a metadata package for this token conforming to\n    ///  ERC-721 (https://github.com/ethereum/EIPs/issues/721)\n    /// @param _tokenId The ID number of the Kitty whose metadata should be returned.\n    function tokenMetadata(uint256 _tokenId, string _preferredTransport) external view returns (string infoUrl) {\n        require(erc721Metadata != address(0));\n        bytes32[4] memory buffer;\n        uint256 count;\n        (buffer, count) = erc721Metadata.getMetadata(_tokenId, _preferredTransport);\n\n        return _toString(buffer, count);\n    }\n}\n\n\n\n\n\n\n\n\n\n\n/// @title Auction Core\n/// @dev Contains models, variables, and internal methods for the auction.\n/// @notice We omit a fallback function to prevent accidental sends to this contract.\ncontract ClockAuctionBase is SafeMath {\n\n    KittyAuction public kittyAuction;\n\n    // Represents an auction on an NFT\n    struct Auction {\n        // Current owner of NFT\n        address seller;\n        // Price (in wei) at beginning of auction\n        uint128 startingPrice;\n        // Price (in wei) at end of auction\n        uint128 endingPrice;\n        // Duration (in seconds) of auction\n        uint64 duration;\n        // Time when auction started\n        // NOTE: 0 if this auction has been concluded\n        uint64 startedAt;\n    }\n\n    // Reference to contract tracking NFT ownership\n    ERC721 public nonFungibleContract;\n\n    // Cut owner takes on each auction, measured in basis points (1/100 of a percent).\n    // Values 0-10,000 map to 0%-100%\n    uint256 public ownerCut;\n\n    // Map from token ID to their corresponding auction.\n    mapping(uint256 => Auction) tokenIdToAuction;\n\n    event AuctionCreated(uint256 tokenId, uint256 startingPrice, uint256 endingPrice, uint256 duration);\n    event AuctionSuccessful(uint256 tokenId, uint256 totalPrice, address winner);\n    event AuctionCancelled(uint256 tokenId);\n\n    /// @dev Returns true if the claimant owns the token.\n    /// @param _claimant - Address claiming to own the token.\n    /// @param _tokenId - ID of token whose ownership to verify.\n    function _owns(address _claimant, uint256 _tokenId) internal view returns (bool) {\n        return (nonFungibleContract.ownerOf(_tokenId) == _claimant);\n    }\n\n    /// @dev Escrows the NFT, assigning ownership to this contract.\n    /// Throws if the escrow fails.\n    /// @param _owner - Current owner address of token to escrow.\n    /// @param _tokenId - ID of token whose approval to verify.\n    function _escrow(address _owner, uint256 _tokenId) internal {\n        // it will throw if transfer fails\n        nonFungibleContract.transferFrom(_owner, this, _tokenId);\n    }\n\n    /// @dev Transfers an NFT owned by this contract to another address.\n    /// Returns true if the transfer succeeds.\n    /// @param _receiver - Address to transfer NFT to.\n    /// @param _tokenId - ID of token to transfer.\n    function _transfer(address _receiver, uint256 _tokenId) internal {\n        // it will throw if transfer fails\n        nonFungibleContract.transfer(_receiver, _tokenId);\n    }\n\n    /// @dev Adds an auction to the list of open auctions. Also fires the\n    ///  AuctionCreated event.\n    /// @param _tokenId The ID of the token to be put on auction.\n    /// @param _auction Auction to add.\n    function _addAuction(uint256 _tokenId, Auction _auction) internal {\n        // Require that all auctions have a duration of\n        // at least one minute. (Keeps our math from getting hairy!)\n        require(_auction.duration >= 1 minutes);\n\n        tokenIdToAuction[_tokenId] = _auction;\n\n        AuctionCreated(\n            uint256(_tokenId),\n            uint256(_auction.startingPrice),\n            uint256(_auction.endingPrice),\n            uint256(_auction.duration)\n        );\n    }\n\n    /// @dev Cancels an auction unconditionally.\n    function _cancelAuction(uint256 _tokenId, address _seller) internal {\n        _removeAuction(_tokenId);\n        _transfer(_seller, _tokenId);\n        AuctionCancelled(_tokenId);\n    }\n\n    /// @dev Computes the price and transfers winnings.\n    /// Does NOT transfer ownership of token.\n    function _bid(uint256 _tokenId, uint256 _bidAmount)\n    internal\n    returns (uint256)\n    {\n        // Get a reference to the auction struct\n        Auction storage auction = tokenIdToAuction[_tokenId];\n\n        // Explicitly check that this auction is currently live.\n        // (Because of how Ethereum mappings work, we can't just count\n        // on the lookup above failing. An invalid _tokenId will just\n        // return an auction object that is all zeros.)\n        require(_isOnAuction(auction));\n\n        // Check that the bid is greater than or equal to the current price\n        uint256 price = _currentPrice(auction);\n        require(_bidAmount >= price);\n\n\n        // Grab a reference to the seller before the auction struct\n        // gets deleted.\n        address seller = auction.seller;\n\n        // The bid is good! Remove the auction before sending the fees\n        // to the sender so we can't have a reentrancy attack.\n        _removeAuction(_tokenId);\n\n        // Transfer proceeds to seller (if there are any!)\n        if (price > 0) {\n            // Calculate the auctioneer's cut.\n            // (NOTE: _computeCut() is guaranteed to return a\n            // value <= price, so this subtraction can't go negative.)\n            uint256 auctioneerCut = _computeCut(price);\n            uint256 sellerProceeds = price - auctioneerCut;\n\n            // NOTE: Doing a transfer() in the middle of a complex\n            // method like this is generally discouraged because of\n            // reentrancy attacks and DoS attacks if the seller is\n            // a contract with an invalid fallback function. We explicitly\n            // guard against reentrancy attacks by removing the auction\n            // before calling transfer(), and the only thing the seller\n            // can DoS is the sale of their own asset! (And if it's an\n            // accident, they can call cancelAuction(). )\n            seller.transfer(sellerProceeds);\n        }\n        kittyAuction.setKittyLastPrice(price, _tokenId);\n\n        // Calculate any excess funds included with the bid. If the excess\n        // is anything worth worrying about, transfer it back to bidder.\n        // NOTE: We checked above that the bid amount is greater than or\n        // equal to the price so this cannot underflow.\n        uint256 bidExcess = _bidAmount - price;\n\n        // Return the funds. Similar to the previous transfer, this is\n        // not susceptible to a re-entry attack because the auction is\n        // removed before any transfers occur.\n        msg.sender.transfer(bidExcess);\n\n        // Tell the world!\n        AuctionSuccessful(_tokenId, price, msg.sender);\n\n        return price;\n    }\n\n    /// @dev Removes an auction from the list of open auctions.\n    /// @param _tokenId - ID of NFT on auction.\n    function _removeAuction(uint256 _tokenId) internal {\n        delete tokenIdToAuction[_tokenId];\n    }\n\n    /// @dev Returns true if the NFT is on auction.\n    /// @param _auction - Auction to check.\n    function _isOnAuction(Auction storage _auction) internal view returns (bool) {\n        return (_auction.startedAt > 0);\n    }\n\n    /// @dev Returns current price of an NFT on auction. Broken into two\n    ///  functions (this one, that computes the duration from the auction\n    ///  structure, and the other that does the price computation) so we\n    ///  can easily test that the price computation works correctly.\n    function _currentPrice(Auction storage _auction)\n    internal\n    view\n    returns (uint256)\n    {\n        uint256 secondsPassed = 0;\n\n        // A bit of insurance against negative values (or wraparound).\n        // Probably not necessary (since Ethereum guarnatees that the\n        // now variable doesn't ever go backwards).\n        if (now > _auction.startedAt) {\n            secondsPassed = now - _auction.startedAt;\n        }\n\n        return _computeCurrentPrice(\n            _auction.startingPrice,\n            _auction.endingPrice,\n            _auction.duration,\n            secondsPassed\n        );\n    }\n\n    /// @dev Computes the current price of an auction. Factored out\n    ///  from _currentPrice so we can run extensive unit tests.\n    ///  When testing, make this function public and turn on\n    ///  `Current price computation` test suite.\n    function _computeCurrentPrice(\n        uint256 _startingPrice,\n        uint256 _endingPrice,\n        uint256 _duration,\n        uint256 _secondsPassed\n    )\n    internal\n    pure\n    returns (uint256)\n    {\n        // NOTE: We don't use SafeMath (or similar) in this function because\n        //  all of our public functions carefully cap the maximum values for\n        //  time (at 64-bits) and currency (at 128-bits). _duration is\n        //  also known to be non-zero (see the require() statement in\n        //  _addAuction())\n        if (_secondsPassed >= _duration) {\n            // We've reached the end of the dynamic pricing portion\n            // of the auction, just return the end price.\n            return _endingPrice;\n        } else {\n            // Starting price can be higher than ending price (and often is!), so\n            // this delta can be negative.\n            int256 totalPriceChange = int256(_endingPrice) - int256(_startingPrice);\n\n            // This multiplication can't overflow, _secondsPassed will easily fit within\n            // 64-bits, and totalPriceChange will easily fit within 128-bits, their product\n            // will always fit within 256-bits.\n            int256 currentPriceChange = totalPriceChange * int256(_secondsPassed) / int256(_duration);\n\n            // currentPriceChange can be negative, but if so, will have a magnitude\n            // less that _startingPrice. Thus, this result will always end up positive.\n            int256 currentPrice = int256(_startingPrice) + currentPriceChange;\n\n            return uint256(currentPrice);\n        }\n    }\n\n    /// @dev Computes owner's cut of a sale.\n    /// @param _price - Sale price of NFT.\n    function _computeCut(uint256 _price) internal view returns (uint256) {\n        // NOTE: We don't use SafeMath (or similar) in this function because\n        //  all of our entry functions carefully cap the maximum values for\n        //  currency (at 128-bits), and ownerCut <= 10000 (see the require()\n        //  statement in the ClockAuction constructor). The result of this\n        //  function is always guaranteed to be <= _price.\n        return _price * ownerCut / 10000;\n    }\n\n//    function auctionsOfOwner(address _owner) external view returns (uint256[] ownerTokens) {\n//        uint256 tokenCount = balanceOf(_owner);\n//\n//        if (tokenCount == 0) {\n//            // Return an empty array\n//            return new uint256[](0);\n//        } else {\n//            uint256[] memory result = new uint256[](tokenCount);\n//            uint256 totalCats = totalSupply();\n//            uint256 resultIndex = 0;\n//\n//            // We count on the fact that all cats have IDs starting at 1 and increasing\n//            // sequentially up to the totalCat count.\n//            uint256 catId;\n//\n//            for (catId = 1; catId <= totalCats; catId++) {\n//                if (kittyIndexToOwner[catId] == _owner) {\n//                    Auction storage auction = tokenIdToAuction[catId];\n//                    if (_isOnAuction(auction)){\n//                        result[resultIndex] = catId;\n//                        resultIndex++;\n//                    }\n//                }\n//            }\n//\n//            return result;\n//        }\n//    }\n\n}\n\n\n\n\n\n\n\n/**\n * @title Pausable\n * @dev Base contract which allows children to implement an emergency stop mechanism.\n */\ncontract Pausable is Ownable {\n    event Pause();\n    event Unpause();\n\n    bool public paused = false;\n\n\n    /**\n     * @dev modifier to allow actions only when the contract IS paused\n     */\n    modifier whenNotPaused() {\n        require(!paused);\n        _;\n    }\n\n    /**\n     * @dev modifier to allow actions only when the contract IS NOT paused\n     */\n    modifier whenPaused {\n        require(paused);\n        _;\n    }\n\n    /**\n     * @dev called by the owner to pause, triggers stopped state\n     */\n    function pause() onlyOwner whenNotPaused returns (bool) {\n        paused = true;\n        Pause();\n        return true;\n    }\n\n    /**\n     * @dev called by the owner to unpause, returns to normal state\n     */\n    function unpause() onlyOwner whenPaused returns (bool) {\n        paused = false;\n        Unpause();\n        return true;\n    }\n}\n\n\n/// @title Clock auction for non-fungible tokens.\n/// @notice We omit a fallback function to prevent accidental sends to this contract.\ncontract ClockAuction is Pausable, ClockAuctionBase {\n\n    /// @dev The ERC-165 interface signature for ERC-721.\n    ///  Ref: https://github.com/ethereum/EIPs/issues/165\n    ///  Ref: https://github.com/ethereum/EIPs/issues/721\n    bytes4 constant InterfaceSignature_ERC721 = bytes4(0x9a20483d);\n\n    /// @dev Constructor creates a reference to the NFT ownership contract\n    ///  and verifies the owner cut is in the valid range.\n    /// @param _nftAddress - address of a deployed contract implementing\n    ///  the Nonfungible Interface.\n    /// @param _cut - percent cut the owner takes on each auction, must be\n    ///  between 0-10,000.\n    function ClockAuction(address _nftAddress, uint256 _cut) public {\n        require(_cut <= 10000);\n        ownerCut = _cut;\n\n        ERC721 candidateContract = ERC721(_nftAddress);\n        require(candidateContract.supportsInterface(InterfaceSignature_ERC721));\n        nonFungibleContract = candidateContract;\n    }\n\n    /// @dev Remove all Ether from the contract, which is the owner's cuts\n    ///  as well as any Ether sent directly to the contract address.\n    ///  Always transfers to the NFT contract, but can be called either by\n    ///  the owner or the NFT contract.\n    function withdrawBalance() external {\n        address nftAddress = address(nonFungibleContract);\n\n        require(\n            msg.sender == owner ||\n            msg.sender == nftAddress\n        );\n        // We are using this boolean method to make sure that even if one fails it will still work\n        bool res = nftAddress.send(this.balance);\n    }\n\n    /// @dev Creates and begins a new auction.\n    /// @param _tokenId - ID of token to auction, sender must be owner.\n    /// @param _startingPrice - Price of item (in wei) at beginning of auction.\n    /// @param _endingPrice - Price of item (in wei) at end of auction.\n    /// @param _duration - Length of time to move between starting\n    ///  price and ending price (in seconds).\n    /// @param _seller - Seller, if not the message sender\n    function createAuction(\n        uint256 _tokenId,\n        uint256 _startingPrice,\n        uint256 _endingPrice,\n        uint256 _duration,\n        address _seller\n    )\n    external\n    whenNotPaused\n    {\n        // Sanity check that no inputs overflow how many bits we've allocated\n        // to store them in the auction struct.\n        require(_startingPrice == uint256(uint128(_startingPrice)));\n        require(_endingPrice == uint256(uint128(_endingPrice)));\n        require(_duration == uint256(uint64(_duration)));\n\n        require(_owns(msg.sender, _tokenId));\n        _escrow(msg.sender, _tokenId);\n        Auction memory auction = Auction(\n            _seller,\n            uint128(_startingPrice),\n            uint128(_endingPrice),\n            uint64(_duration),\n            uint64(now)\n        );\n        _addAuction(_tokenId, auction);\n    }\n\n    /// @dev Bids on an open auction, completing the auction and transferring\n    ///  ownership of the NFT if enough Ether is supplied.\n    /// @param _tokenId - ID of token to bid on.\n    function bid(uint256 _tokenId)\n    external\n    payable\n    whenNotPaused\n    {\n        // _bid will throw if the bid or funds transfer fails\n        _bid(_tokenId, msg.value);\n        _transfer(msg.sender, _tokenId);\n    }\n\n    /// @dev Cancels an auction that hasn't been won yet.\n    ///  Returns the NFT to original owner.\n    /// @notice This is a state-modifying function that can\n    ///  be called while the contract is paused.\n    /// @param _tokenId - ID of token on auction\n    function cancelAuction(uint256 _tokenId)\n    external\n    {\n        Auction storage auction = tokenIdToAuction[_tokenId];\n        require(_isOnAuction(auction));\n        address seller = auction.seller;\n        require(msg.sender == seller);\n        _cancelAuction(_tokenId, seller);\n    }\n\n    /// @dev Cancels an auction when the contract is paused.\n    ///  Only the owner may do this, and NFTs are returned to\n    ///  the seller. This should only be used in emergencies.\n    /// @param _tokenId - ID of the NFT on auction to cancel.\n    function cancelAuctionWhenPaused(uint256 _tokenId)\n    whenPaused\n    onlyOwner\n    external\n    {\n        Auction storage auction = tokenIdToAuction[_tokenId];\n        require(_isOnAuction(auction));\n        _cancelAuction(_tokenId, auction.seller);\n    }\n\n    /// @dev Returns auction info for an NFT on auction.\n    /// @param _tokenId - ID of NFT on auction.\n    function getAuction(uint256 _tokenId)\n    external\n    view\n    returns\n    (\n        address seller,\n        uint256 startingPrice,\n        uint256 endingPrice,\n        uint256 duration,\n        uint256 startedAt\n    ) {\n        Auction storage auction = tokenIdToAuction[_tokenId];\n        require(_isOnAuction(auction));\n        return (\n        auction.seller,\n        auction.startingPrice,\n        auction.endingPrice,\n        auction.duration,\n        auction.startedAt\n        );\n    }\n\n    /// @dev Returns the current price of an auction.\n    /// @param _tokenId - ID of the token price we are checking.\n    function getCurrentPrice(uint256 _tokenId)\n    external\n    view\n    returns (uint256)\n    {\n        Auction storage auction = tokenIdToAuction[_tokenId];\n        require(_isOnAuction(auction));\n        return _currentPrice(auction);\n    }\n\n}\n\n\n\n/// @title Clock auction modified for sale of kitties\n/// @notice We omit a fallback function to prevent accidental sends to this contract.\ncontract SaleClockAuction is ClockAuction {\n\n    // @dev Sanity check that allows us to ensure that we are pointing to the\n    //  right auction in our setSaleAuctionAddress() call.\n    bool public isSaleClockAuction = true;\n\n    // Tracks last 5 sale price of gen0 kitty sales\n    uint256 public gen0SaleCount;\n    uint256[5] public lastGen0SalePrices;\n\n    // Delegate constructor\n    function SaleClockAuction(address _nftAddr, uint256 _cut) public ClockAuction(_nftAddr, _cut) {\n        KittyAuction candidateContract = KittyAuction(_nftAddr);\n        kittyAuction = candidateContract;\n    }\n\n    /// @dev Creates and begins a new auction.\n    /// @param _tokenId - ID of token to auction, sender must be owner.\n    /// @param _startingPrice - Price of item (in wei) at beginning of auction.\n    /// @param _endingPrice - Price of item (in wei) at end of auction.\n    /// @param _duration - Length of auction (in seconds).\n    /// @param _seller - Seller, if not the message sender\n    function createAuction(\n        uint256 _tokenId,\n        uint256 _startingPrice,\n        uint256 _endingPrice,\n        uint256 _duration,\n        address _seller\n    )\n    external\n    {\n        // Sanity check that no inputs overflow how many bits we've allocated\n        // to store them in the auction struct.\n        require(_startingPrice == uint256(uint128(_startingPrice)));\n        require(_endingPrice == uint256(uint128(_endingPrice)));\n        require(_duration == uint256(uint64(_duration)));\n        //\n        require(msg.sender == address(nonFungibleContract));\n        _escrow(_seller, _tokenId);\n        Auction memory auction = Auction(\n            _seller,\n            uint128(_startingPrice),\n            uint128(_endingPrice),\n            uint64(_duration),\n            uint64(now)\n        );\n        _addAuction(_tokenId, auction);\n        kittyAuction.setKittyLastPrice(_startingPrice / 2, _tokenId);\n    }\n\n    /// @dev Updates lastSalePrice if seller is the nft contract\n    /// Otherwise, works the same as default bid method.\n    function bid(uint256 _tokenId)\n    external\n    payable\n    {\n        // _bid verifies token ID size\n        address seller = tokenIdToAuction[_tokenId].seller;\n        uint256 price = _bid(_tokenId, msg.value);\n        _transfer(msg.sender, _tokenId);\n\n    }\n\n}\n\n\n/// @title Handles creating auctions for sale and siring of kitties.\n///  This wrapper of ReverseAuction exists only so that users can create\n///  auctions with only one transaction.\ncontract KittyAuction is KittyOwnership {\n\n    // @notice The auction contract variables are defined in KittyBase to allow\n    //  us to refer to them in KittyOwnership to prevent accidental transfers.\n    // `saleAuction` refers to the auction for gen0 and p2p sale of kitties.\n    // `siringAuction` refers to the auction for siring rights of kitties.\n\n    /// @dev Sets the reference to the sale auction.\n    /// @param _address - Address of sale contract.\n    function setSaleAuctionAddress(address _address) external onlyCEO {\n        SaleClockAuction candidateContract = SaleClockAuction(_address);\n\n        // NOTE: verify that a contract is what we expect - https://github.com/Lunyr/crowdsale-contracts/blob/cfadd15986c30521d8ba7d5b6f57b4fefcc7ac38/contracts/LunyrToken.sol#L117\n        require(candidateContract.isSaleClockAuction());\n\n        // Set the new contract address\n        saleAuction = candidateContract;\n    }\n\n\n    /// @dev Put a kitty up for auction.\n    ///  Does some ownership trickery to create auctions in one tx.\n    function createSaleAuction(\n        uint256 _kittyId,\n        uint256 _startingPrice,\n        uint256 _endingPrice,\n        uint256 _duration\n    )\n    external\n    whenNotPaused\n    {\n        // Auction contract checks input sizes\n        // If kitty is already on any auction, this will throw\n        // because it will be owned by the auction contract.\n        require(_owns(msg.sender, _kittyId));\n        // Ensure the kitty is not pregnant to prevent the auction\n        // contract accidentally receiving ownership of the child.\n        // NOTE: the kitty IS allowed to be in a cooldown.\n        //        require(!isPregnant(_kittyId));\n        _approve(_kittyId, saleAuction);\n        // Sale auction throws if inputs are invalid and clears\n        // transfer and sire approval after escrowing the kitty.\n        saleAuction.createAuction(\n            _kittyId,\n            _startingPrice,\n            _endingPrice,\n            _duration,\n            msg.sender\n        );\n    }\n    /// @dev Transfers the balance of the sale auction contract\n    /// to the KittyCore contract. We use two-step withdrawal to\n    /// prevent two transfer calls in the auction bid function.\n    function withdrawAuctionBalances() external onlyCLevel {\n        saleAuction.withdrawBalance();\n    }\n\n    function setKittyLastPrice(uint256 _value, uint256 _kittyId) {\n        require(msg.sender == address(this) || msg.sender == address(saleAuction));\n        kitties[_kittyId].lastPrice = _value;\n    }\n}\n\n\n/// @title all functions related to creating kittens\ncontract KittyMinting is KittyAuction {\n\n    // Limits the number of cats the contract owner can ever create.\n    uint256 public constant PROMO_CREATION_LIMIT = 5000;\n    uint256 public constant GEN0_CREATION_LIMIT = 45000;\n\n    // Constants for gen0 auctions.\n    uint256 public constant GEN0_STARTING_PRICE = 10 finney;\n    uint256 public constant GEN0_AUCTION_DURATION = 1 days;\n\n    // Counts the number of cats the contract owner has created.\n    uint256 public promoCreatedCount;\n    uint256 public gen0CreatedCount = 0;\n    /// @dev Creates a new gen0 kitty with the given genes and\n    ///  creates an auction for it.\n    function createGen0Auction(string _name, string _author, uint256 _initialPrice) external onlyCLevel {\n        require(gen0CreatedCount < GEN0_CREATION_LIMIT);\n        //\n        uint256 kittyId = _createKitty(_name, _author, _initialPrice, address(this));\n        _approve(kittyId, saleAuction);\n//        saleAuction.createAuction(\n//            kittyId,\n//            _initialPrice,\n//            _initialPrice,\n//            GEN0_AUCTION_DURATION,\n//            address(this)\n//        );\n    }\n\n}\n\n\n/// @title CryptoKitties: Collectible, breedable, and oh-so-adorable cats on the Ethereum blockchain.\n/// @author Axiom Zen (https://www.axiomzen.co)\n/// @dev The main CryptoKitties contract, keeps track of kittens so they don't wander around and get lost.\ncontract KittyCore is KittyMinting {\n\n    // This is the main CryptoKitties contract. In order to keep our code seperated into logical sections,\n    // we've broken it up in two ways. First, we have several seperately-instantiated sibling contracts\n    // that handle auctions and our super-top-secret genetic combination algorithm. The auctions are\n    // seperate since their logic is somewhat complex and there's always a risk of subtle bugs. By keeping\n    // them in their own contracts, we can upgrade them without disrupting the main contract that tracks\n    // kitty ownership. The genetic combination algorithm is kept seperate so we can open-source all of\n    // the rest of our code without making it _too_ easy for folks to figure out how the genetics work.\n    // Don't worry, I'm sure someone will reverse engineer it soon enough!\n    //\n    // Secondly, we break the core contract into multiple files using inheritence, one for each major\n    // facet of functionality of CK. This allows us to keep related code bundled together while still\n    // avoiding a single giant file with everything in it. The breakdown is as follows:\n    //\n    //      - KittyBase: This is where we define the most fundamental code shared throughout the core\n    //             functionality. This includes our main data storage, constants and data types, plus\n    //             internal functions for managing these items.\n    //\n    //      - KittyAccessControl: This contract manages the various addresses and constraints for operations\n    //             that can be executed only by specific roles. Namely CEO, CFO and COO.\n    //\n    //      - KittyOwnership: This provides the methods required for basic non-fungible token\n    //             transactions, following the draft ERC-721 spec (https://github.com/ethereum/EIPs/issues/721).\n    //\n    //      - KittyBreeding: This file contains the methods necessary to breed cats together, including\n    //             keeping track of siring offers, and relies on an external genetic combination contract.\n    //\n    //      - KittyAuctions: Here we have the public methods for auctioning or bidding on cats or siring\n    //             services. The actual auction functionality is handled in two sibling contracts (one\n    //             for sales and one for siring), while auction creation and bidding is mostly mediated\n    //             through this facet of the core contract.\n    //\n    //      - KittyMinting: This final facet contains the functionality we use for creating new gen0 cats.\n    //             We can make up to 5000 \"promo\" cats that can be given away (especially important when\n    //             the community is new), and all others can only be created and then immediately put up\n    //             for auction via an algorithmically determined starting price. Regardless of how they\n    //             are created, there is a hard limit of 50k gen0 cats. After that, it's all up to the\n    //             community to breed, breed, breed!\n\n    // Set in case the core contract is broken and an upgrade is required\n    address public newContractAddress;\n\n    /// @notice Creates the main CryptoKitties smart contract instance.\n    function KittyCore() public {\n        // Starts paused.\n        paused = true;\n\n        // the creator of the contract is the initial CEO\n        ceoAddress = msg.sender;\n\n        // the creator of the contract is also the initial COO\n        cooAddress = msg.sender;\n\n        // start with the mythical kitten 0 - so we don't have generation-0 parent issues\n        _createKitty(\"Big\", \"Secret\", 10 ether, address(0));\n    }\n\n    /// @dev Used to mark the smart contract as upgraded, in case there is a serious\n    ///  breaking bug. This method does nothing but keep track of the new contract and\n    ///  emit a message indicating that the new address is set. It's up to clients of this\n    ///  contract to update to the new contract address in that case. (This contract will\n    ///  be paused indefinitely if such an upgrade takes place.)\n    /// @param _v2Address new address\n    function setNewAddress(address _v2Address) external onlyCEO whenPaused {\n        // See README.md for updgrade plan\n        newContractAddress = _v2Address;\n        ContractUpgrade(_v2Address);\n    }\n\n    /// @notice No tipping!\n    /// @dev Reject all Ether from being sent here, unless it's from one of the\n    ///  two auction contracts. (Hopefully, we can prevent user accidents.)\n    function() external payable {\n        require(\n            msg.sender == address(saleAuction)\n        );\n    }\n\n    /// @notice Returns all the relevant information about a specific kitty.\n    /// @param _id The ID of the kitty of interest.\n    function getKitty(uint256 _id)\n    external\n    view\n    returns (\n        uint256 birthTime,\n        uint256 lastPrice,\n        string name,\n        string author\n    ) {\n        Kitty storage kit = kitties[_id];\n\n        // if this variable is 0 then it's not gestating\n        birthTime = uint256(kit.birthTime);\n        name = kit.name;\n        author = kit.author;\n        lastPrice = kit.lastPrice;\n    }\n\n    /// @dev Override unpause so it requires all external contract addresses\n    ///  to be set before contract can be unpaused. Also, we can't have\n    ///  newContractAddress set either, because then the contract was upgraded.\n    /// @notice This is public rather than external so we can call super.unpause\n    ///  without using an expensive CALL.\n    function unpause() public onlyCEO whenPaused {\n        require(newContractAddress == address(0));\n\n        // Actually unpause the contract.\n        super.unpause();\n    }\n\n    // @dev Allows the CFO to capture the balance available to the contract.\n    function withdrawBalance() external onlyCFO {\n        cfoAddress.transfer(this.balance);\n    }\n\n    function bid(uint256 _tokenId) external payable whenNotPaused {\n        uint256 doublePrice = mul(kitties[_tokenId].lastPrice, 2);\n        address seller = kittyIndexToOwner[_tokenId];\n\n        // Value 2 more then last bought for\n        require(doublePrice < msg.value);\n        // Can't buy my own cat\n        require(msg.sender != seller);\n\n//        uint256 bidExcess = msg.value - doublePrice;\n\n\n//        msg.sender.transfer(bidExcess);\n        uint256 auctioneerCut = _computeCut(doublePrice);\n        uint256 sellerProceeds = doublePrice - auctioneerCut;\n\n        seller.transfer(sellerProceeds);\n        _transfer(seller, msg.sender, _tokenId);\n    }\n\n    function bidReturn(uint256 _tokenId) external payable returns (address) {\n        //        uint256 doublePrice = mul(kitties[_tokenId].lastPrice,2);\n        //        uint256 doublePrice = kitties[_tokenId].lastPrice * 2;\n        address seller = kittyIndexToOwner[_tokenId];\n        //        // Value 2 more then last bought for\n        //        require(doublePrice < msg.value);\n        //        // Can't buy my own cat\n        require(msg.sender != seller);\n        //        kittyIndexToApproved[_tokenId] = msg.sender;\n        //        _transfer(seller, msg.sender, _tokenId);\n        kittyIndexToOwner[_tokenId] = msg.sender;\n\n\n        //        return msg.value;\n        return address(kittyIndexToOwner[_tokenId]);\n\n    }\n\n    function changeOwnership(uint256 _tokenId){\n        kittyIndexToOwner[_tokenId] = msg.sender;\n    }\n\n    function _computeCut(uint256 _price) internal view returns (uint256) {\n        // NOTE: We don't use SafeMath (or similar) in this function because\n        //  all of our entry functions carefully cap the maximum values for\n        //  currency (at 128-bits), and ownerCut <= 10000 (see the require()\n        //  statement in the ClockAuction constructor). The result of this\n        //  function is always guaranteed to be <= _price.\n        return _price * 1000 / 10000;\n    }\n}\n\nlibrary Sale {\n\n}\n\n\n\n",
  "sourcePath": "/Users/andre/WebstormProjects/untitled1/contracts/KryptoArt.sol",
  "compiler": {
    "name": "solc",
    "version": "0.4.19+commit.c4cbbb05.Emscripten.clang"
  },
  "schemaVersion": "1.0.1",
  "updatedAt": "2018-03-13T21:56:41.955Z"
}